{"abi":[{"type":"constructor","inputs":[],"stateMutability":"nonpayable"},{"type":"function","name":"getLatestStatus","inputs":[],"outputs":[{"name":"","type":"uint8","internalType":"uint8"}],"stateMutability":"view"},{"type":"function","name":"getReport","inputs":[{"name":"index","type":"uint256","internalType":"uint256"}],"outputs":[{"name":"","type":"tuple","internalType":"struct CompliGuardReceiver.Report","components":[{"name":"status","type":"uint8","internalType":"uint8"},{"name":"evidenceHash","type":"bytes32","internalType":"bytes32"},{"name":"policyVersion","type":"string","internalType":"string"},{"name":"timestamp","type":"uint256","internalType":"uint256"},{"name":"controlCount","type":"uint8","internalType":"uint8"}]}],"stateMutability":"view"},{"type":"function","name":"getReportCount","inputs":[],"outputs":[{"name":"","type":"uint256","internalType":"uint256"}],"stateMutability":"view"},{"type":"function","name":"hasReport","inputs":[{"name":"_evidenceHash","type":"bytes32","internalType":"bytes32"}],"outputs":[{"name":"","type":"bool","internalType":"bool"}],"stateMutability":"view"},{"type":"function","name":"latestReport","inputs":[],"outputs":[{"name":"status","type":"uint8","internalType":"uint8"},{"name":"evidenceHash","type":"bytes32","internalType":"bytes32"},{"name":"policyVersion","type":"string","internalType":"string"},{"name":"timestamp","type":"uint256","internalType":"uint256"},{"name":"controlCount","type":"uint8","internalType":"uint8"}],"stateMutability":"view"},{"type":"function","name":"owner","inputs":[],"outputs":[{"name":"","type":"address","internalType":"address"}],"stateMutability":"view"},{"type":"function","name":"processedHashes","inputs":[{"name":"","type":"bytes32","internalType":"bytes32"}],"outputs":[{"name":"","type":"bool","internalType":"bool"}],"stateMutability":"view"},{"type":"function","name":"receiveReport","inputs":[{"name":"_status","type":"uint8","internalType":"uint8"},{"name":"_evidenceHash","type":"bytes32","internalType":"bytes32"},{"name":"_policyVersion","type":"string","internalType":"string"},{"name":"_timestamp","type":"uint256","internalType":"uint256"},{"name":"_controlCount","type":"uint8","internalType":"uint8"}],"outputs":[],"stateMutability":"nonpayable"},{"type":"function","name":"reportHistory","inputs":[{"name":"","type":"uint256","internalType":"uint256"}],"outputs":[{"name":"status","type":"uint8","internalType":"uint8"},{"name":"evidenceHash","type":"bytes32","internalType":"bytes32"},{"name":"policyVersion","type":"string","internalType":"string"},{"name":"timestamp","type":"uint256","internalType":"uint256"},{"name":"controlCount","type":"uint8","internalType":"uint8"}],"stateMutability":"view"},{"type":"function","name":"transferOwnership","inputs":[{"name":"newOwner","type":"address","internalType":"address"}],"outputs":[],"stateMutability":"nonpayable"},{"type":"event","name":"ComplianceReportReceived","inputs":[{"name":"status","type":"uint8","indexed":true,"internalType":"uint8"},{"name":"evidenceHash","type":"bytes32","indexed":false,"internalType":"bytes32"},{"name":"policyVersion","type":"string","indexed":false,"internalType":"string"},{"name":"timestamp","type":"uint256","indexed":false,"internalType":"uint256"},{"name":"controlCount","type":"uint8","indexed":false,"internalType":"uint8"}],"anonymous":false},{"type":"event","name":"OwnershipTransferred","inputs":[{"name":"previousOwner","type":"address","indexed":true,"internalType":"address"},{"name":"newOwner","type":"address","indexed":true,"internalType":"address"}],"anonymous":false}],"bytecode":{"object":"0x608060405234801561001057600080fd5b50336000806101000a81548173ffffffffffffffffffffffffffffffffffffffff021916908373ffffffffffffffffffffffffffffffffffffffff1602179055503373ffffffffffffffffffffffffffffffffffffffff16600073ffffffffffffffffffffffffffffffffffffffff167f8be0079c531659141344cd1fd0a4f28419497f9722a3daafe3b4186f6b6457e060405160405180910390a36116cd806100bb6000396000f3fe608060405234801561001057600080fd5b506004361061009e5760003560e01c8063bcf5d43611610066578063bcf5d43614610177578063cad9642b14610193578063de71db50146101b1578063ef01867f146101cf578063f2fde38b146101ff5761009e565b8063071d1e89146100a357806307d9c534146100d75780634e7f9b19146101075780636af6eeed146101375780638da5cb5b14610159575b600080fd5b6100bd60048036038101906100b89190610aa8565b61021b565b6040516100ce959493929190610ba9565b60405180910390f35b6100f160048036038101906100ec9190610c2f565b610303565b6040516100fe9190610c77565b60405180910390f35b610121600480360381019061011c9190610aa8565b610323565b60405161012e9190610d7f565b60405180910390f35b61013f610486565b604051610150959493929190610ba9565b60405180910390f35b61016161054c565b60405161016e9190610de2565b60405180910390f35b610191600480360381019061018c9190610e8e565b610570565b005b61019b610825565b6040516101a89190610f28565b60405180910390f35b6101b9610832565b6040516101c69190610f43565b60405180910390f35b6101e960048036038101906101e49190610c2f565b61084c565b6040516101f69190610c77565b60405180910390f35b61021960048036038101906102149190610f8a565b610876565b005b6006818154811061022b57600080fd5b90600052602060002090600502016000915090508060000160009054906101000a900460ff169080600101549080600201805461026790610fe6565b80601f016020809104026020016040519081016040528092919081815260200182805461029390610fe6565b80156102e05780601f106102b5576101008083540402835291602001916102e0565b820191906000526020600020905b8154815290600101906020018083116102c357829003601f168201915b5050505050908060030154908060040160009054906101000a900460ff16905085565b60076020528060005260406000206000915054906101000a900460ff1681565b61032b610a30565b6006805490508210610372576040517f08c379a000000000000000000000000000000000000000000000000000000000815260040161036990611063565b60405180910390fd5b6006828154811061038657610385611083565b5b90600052602060002090600502016040518060a00160405290816000820160009054906101000a900460ff1660ff1660ff168152602001600182015481526020016002820180546103d690610fe6565b80601f016020809104026020016040519081016040528092919081815260200182805461040290610fe6565b801561044f5780601f106104245761010080835404028352916020019161044f565b820191906000526020600020905b81548152906001019060200180831161043257829003601f168201915b50505050508152602001600382015481526020016004820160009054906101000a900460ff1660ff1660ff16815250509050919050565b60018060000160009054906101000a900460ff16908060010154908060020180546104b090610fe6565b80601f01602080910402602001604051908101604052809291908181526020018280546104dc90610fe6565b80156105295780601f106104fe57610100808354040283529160200191610529565b820191906000526020600020905b81548152906001019060200180831161050c57829003601f168201915b5050505050908060030154908060040160009054906101000a900460ff16905085565b60008054906101000a900473ffffffffffffffffffffffffffffffffffffffff1681565b60028660ff1611156105b7576040517f08c379a00000000000000000000000000000000000000000000000000000000081526004016105ae906110fe565b60405180910390fd5b6007600086815260200190815260200160002060009054906101000a900460ff1615610618576040517f08c379a000000000000000000000000000000000000000000000000000000000815260040161060f9061116a565b60405180910390fd5b6040518060a001604052808760ff16815260200186815260200185858080601f016020809104026020016040519081016040528093929190818152602001838380828437600081840152601f19601f8201169050808301925050505050505081526020018381526020018260ff16815250600160008201518160000160006101000a81548160ff021916908360ff1602179055506020820151816001015560408201518160020190816106cb9190611365565b506060820151816003015560808201518160040160006101000a81548160ff021916908360ff1602179055509050506006600190806001815401808255809150506001900390600052602060002090600502016000909190919091506000820160009054906101000a900460ff168160000160006101000a81548160ff021916908360ff1602179055506001820154816001015560028201816002019081610773919061144d565b50600382015481600301556004820160009054906101000a900460ff168160040160006101000a81548160ff021916908360ff160217905550505060016007600087815260200190815260200160002060006101000a81548160ff0219169083151502179055508560ff167fd74b70ed470141f549f34f6da209e56f5afdc973b7fe6fb027dbab8b21134a608686868686604051610815959493929190611571565b60405180910390a2505050505050565b6000600680549050905090565b6000600160000160009054906101000a900460ff16905090565b60006007600083815260200190815260200160002060009054906101000a900460ff169050919050565b60008054906101000a900473ffffffffffffffffffffffffffffffffffffffff1673ffffffffffffffffffffffffffffffffffffffff163373ffffffffffffffffffffffffffffffffffffffff1614610904576040517f08c379a00000000000000000000000000000000000000000000000000000000081526004016108fb9061160b565b60405180910390fd5b600073ffffffffffffffffffffffffffffffffffffffff168173ffffffffffffffffffffffffffffffffffffffff1603610973576040517f08c379a000000000000000000000000000000000000000000000000000000000815260040161096a90611677565b60405180910390fd5b8073ffffffffffffffffffffffffffffffffffffffff1660008054906101000a900473ffffffffffffffffffffffffffffffffffffffff1673ffffffffffffffffffffffffffffffffffffffff167f8be0079c531659141344cd1fd0a4f28419497f9722a3daafe3b4186f6b6457e060405160405180910390a3806000806101000a81548173ffffffffffffffffffffffffffffffffffffffff021916908373ffffffffffffffffffffffffffffffffffffffff16021790555050565b6040518060a00160405280600060ff168152602001600080191681526020016060815260200160008152602001600060ff1681525090565b600080fd5b600080fd5b6000819050919050565b610a8581610a72565b8114610a9057600080fd5b50565b600081359050610aa281610a7c565b92915050565b600060208284031215610abe57610abd610a68565b5b6000610acc84828501610a93565b91505092915050565b600060ff82169050919050565b610aeb81610ad5565b82525050565b6000819050919050565b610b0481610af1565b82525050565b600081519050919050565b600082825260208201905092915050565b60005b83811015610b44578082015181840152602081019050610b29565b60008484015250505050565b6000601f19601f8301169050919050565b6000610b6c82610b0a565b610b768185610b15565b9350610b86818560208601610b26565b610b8f81610b50565b840191505092915050565b610ba381610a72565b82525050565b600060a082019050610bbe6000830188610ae2565b610bcb6020830187610afb565b8181036040830152610bdd8186610b61565b9050610bec6060830185610b9a565b610bf96080830184610ae2565b9695505050505050565b610c0c81610af1565b8114610c1757600080fd5b50565b600081359050610c2981610c03565b92915050565b600060208284031215610c4557610c44610a68565b5b6000610c5384828501610c1a565b91505092915050565b60008115159050919050565b610c7181610c5c565b82525050565b6000602082019050610c8c6000830184610c68565b92915050565b610c9b81610ad5565b82525050565b610caa81610af1565b82525050565b600082825260208201905092915050565b6000610ccc82610b0a565b610cd68185610cb0565b9350610ce6818560208601610b26565b610cef81610b50565b840191505092915050565b610d0381610a72565b82525050565b600060a083016000830151610d216000860182610c92565b506020830151610d346020860182610ca1565b5060408301518482036040860152610d4c8282610cc1565b9150506060830151610d616060860182610cfa565b506080830151610d746080860182610c92565b508091505092915050565b60006020820190508181036000830152610d998184610d09565b905092915050565b600073ffffffffffffffffffffffffffffffffffffffff82169050919050565b6000610dcc82610da1565b9050919050565b610ddc81610dc1565b82525050565b6000602082019050610df76000830184610dd3565b92915050565b610e0681610ad5565b8114610e1157600080fd5b50565b600081359050610e2381610dfd565b92915050565b600080fd5b600080fd5b600080fd5b60008083601f840112610e4e57610e4d610e29565b5b8235905067ffffffffffffffff811115610e6b57610e6a610e2e565b5b602083019150836001820283011115610e8757610e86610e33565b5b9250929050565b60008060008060008060a08789031215610eab57610eaa610a68565b5b6000610eb989828a01610e14565b9650506020610eca89828a01610c1a565b955050604087013567ffffffffffffffff811115610eeb57610eea610a6d565b5b610ef789828a01610e38565b94509450506060610f0a89828a01610a93565b9250506080610f1b89828a01610e14565b9150509295509295509295565b6000602082019050610f3d6000830184610b9a565b92915050565b6000602082019050610f586000830184610ae2565b92915050565b610f6781610dc1565b8114610f7257600080fd5b50565b600081359050610f8481610f5e565b92915050565b600060208284031215610fa057610f9f610a68565b5b6000610fae84828501610f75565b91505092915050565b7f4e487b7100000000000000000000000000000000000000000000000000000000600052602260045260246000fd5b60006002820490506001821680610ffe57607f821691505b60208210810361101157611010610fb7565b5b50919050565b7f496e646578206f7574206f6620626f756e647300000000000000000000000000600082015250565b600061104d601383610b15565b915061105882611017565b602082019050919050565b6000602082019050818103600083015261107c81611040565b9050919050565b7f4e487b7100000000000000000000000000000000000000000000000000000000600052603260045260246000fd5b7f496e76616c696420737461747573000000000000000000000000000000000000600082015250565b60006110e8600e83610b15565b91506110f3826110b2565b602082019050919050565b60006020820190508181036000830152611117816110db565b9050919050565b7f5265706f727420616c72656164792070726f6365737365640000000000000000600082015250565b6000611154601883610b15565b915061115f8261111e565b602082019050919050565b6000602082019050818103600083015261118381611147565b9050919050565b7f4e487b7100000000000000000000000000000000000000000000000000000000600052604160045260246000fd5b60008190508160005260206000209050919050565b60006020601f8301049050919050565b600082821b905092915050565b60006008830261121b7fffffffffffffffffffffffffffffffffffffffffffffffffffffffffffffffff826111de565b61122586836111de565b95508019841693508086168417925050509392505050565b6000819050919050565b600061126261125d61125884610a72565b61123d565b610a72565b9050919050565b6000819050919050565b61127c83611247565b61129061128882611269565b8484546111eb565b825550505050565b600090565b6112a5611298565b6112b0818484611273565b505050565b5b818110156112d4576112c960008261129d565b6001810190506112b6565b5050565b601f821115611319576112ea816111b9565b6112f3846111ce565b81016020851015611302578190505b61131661130e856111ce565b8301826112b5565b50505b505050565b600082821c905092915050565b600061133c6000198460080261131e565b1980831691505092915050565b6000611355838361132b565b9150826002028217905092915050565b61136e82610b0a565b67ffffffffffffffff8111156113875761138661118a565b5b6113918254610fe6565b61139c8282856112d8565b600060209050601f8311600181146113cf57600084156113bd578287015190505b6113c78582611349565b86555061142f565b601f1984166113dd866111b9565b60005b82811015611405578489015182556001820191506020850194506020810190506113e0565b86831015611422578489015161141e601f89168261132b565b8355505b6001600288020188555050505b505050505050565b60008154905061144681610fe6565b9050919050565b81810361145b575050611533565b61146482611437565b67ffffffffffffffff81111561147d5761147c61118a565b5b6114878254610fe6565b6114928282856112d8565b6000601f8311600181146114c157600084156114af578287015490505b6114b98582611349565b86555061152c565b601f1984166114cf876111b9565b96506114da866111b9565b60005b82811015611502578489015482556001820191506001850194506020810190506114dd565b8683101561151f578489015461151b601f89168261132b565b8355505b6001600288020188555050505b5050505050505b565b82818337600083830152505050565b60006115508385610b15565b935061155d838584611535565b61156683610b50565b840190509392505050565b60006080820190506115866000830188610afb565b8181036020830152611599818688611544565b90506115a86040830185610b9a565b6115b56060830184610ae2565b9695505050505050565b7f4e6f7420617574686f72697a6564000000000000000000000000000000000000600082015250565b60006115f5600e83610b15565b9150611600826115bf565b602082019050919050565b60006020820190508181036000830152611624816115e8565b9050919050565b7f496e76616c696420616464726573730000000000000000000000000000000000600082015250565b6000611661600f83610b15565b915061166c8261162b565b602082019050919050565b6000602082019050818103600083015261169081611654565b905091905056fea26469706673582212209e973cda738a4082f4ad8f8d2e4dbc1e2d23a540dad8e2e03b0732bbc26dba0564736f6c63430008130033","linkReferences":{}},"methodIdentifiers":{"getLatestStatus()":"de71db50","getReport(uint256)":"4e7f9b19","getReportCount()":"cad9642b","hasReport(bytes32)":"ef01867f","latestReport()":"6af6eeed","owner()":"8da5cb5b","processedHashes(bytes32)":"07d9c534","receiveReport(uint8,bytes32,string,uint256,uint8)":"bcf5d436","reportHistory(uint256)":"071d1e89","transferOwnership(address)":"f2fde38b"},"id":0}